{
  "_format": "hh-sol-artifact-1",
  "contractName": "CardCollection",
  "sourceName": "contracts/CardCollection.sol",
  "abi": [
    {
      "inputs": [],
      "stateMutability": "nonpayable",
      "type": "constructor"
    },
    {
      "inputs": [
        {
          "internalType": "address",
          "name": "sender",
          "type": "address"
        },
        {
          "internalType": "uint256",
          "name": "tokenId",
          "type": "uint256"
        },
        {
          "internalType": "address",
          "name": "owner",
          "type": "address"
        }
      ],
      "name": "ERC721IncorrectOwner",
      "type": "error"
    },
    {
      "inputs": [
        {
          "internalType": "address",
          "name": "operator",
          "type": "address"
        },
        {
          "internalType": "uint256",
          "name": "tokenId",
          "type": "uint256"
        }
      ],
      "name": "ERC721InsufficientApproval",
      "type": "error"
    },
    {
      "inputs": [
        {
          "internalType": "address",
          "name": "approver",
          "type": "address"
        }
      ],
      "name": "ERC721InvalidApprover",
      "type": "error"
    },
    {
      "inputs": [
        {
          "internalType": "address",
          "name": "operator",
          "type": "address"
        }
      ],
      "name": "ERC721InvalidOperator",
      "type": "error"
    },
    {
      "inputs": [
        {
          "internalType": "address",
          "name": "owner",
          "type": "address"
        }
      ],
      "name": "ERC721InvalidOwner",
      "type": "error"
    },
    {
      "inputs": [
        {
          "internalType": "address",
          "name": "receiver",
          "type": "address"
        }
      ],
      "name": "ERC721InvalidReceiver",
      "type": "error"
    },
    {
      "inputs": [
        {
          "internalType": "address",
          "name": "sender",
          "type": "address"
        }
      ],
      "name": "ERC721InvalidSender",
      "type": "error"
    },
    {
      "inputs": [
        {
          "internalType": "uint256",
          "name": "tokenId",
          "type": "uint256"
        }
      ],
      "name": "ERC721NonexistentToken",
      "type": "error"
    },
    {
      "inputs": [
        {
          "internalType": "address",
          "name": "owner",
          "type": "address"
        }
      ],
      "name": "OwnableInvalidOwner",
      "type": "error"
    },
    {
      "inputs": [
        {
          "internalType": "address",
          "name": "account",
          "type": "address"
        }
      ],
      "name": "OwnableUnauthorizedAccount",
      "type": "error"
    },
    {
      "anonymous": false,
      "inputs": [
        {
          "indexed": true,
          "internalType": "address",
          "name": "owner",
          "type": "address"
        },
        {
          "indexed": true,
          "internalType": "address",
          "name": "approved",
          "type": "address"
        },
        {
          "indexed": true,
          "internalType": "uint256",
          "name": "tokenId",
          "type": "uint256"
        }
      ],
      "name": "Approval",
      "type": "event"
    },
    {
      "anonymous": false,
      "inputs": [
        {
          "indexed": true,
          "internalType": "address",
          "name": "owner",
          "type": "address"
        },
        {
          "indexed": true,
          "internalType": "address",
          "name": "operator",
          "type": "address"
        },
        {
          "indexed": false,
          "internalType": "bool",
          "name": "approved",
          "type": "bool"
        }
      ],
      "name": "ApprovalForAll",
      "type": "event"
    },
    {
      "anonymous": false,
      "inputs": [
        {
          "indexed": false,
          "internalType": "uint256",
          "name": "_fromTokenId",
          "type": "uint256"
        },
        {
          "indexed": false,
          "internalType": "uint256",
          "name": "_toTokenId",
          "type": "uint256"
        }
      ],
      "name": "BatchMetadataUpdate",
      "type": "event"
    },
    {
      "anonymous": false,
      "inputs": [
        {
          "indexed": false,
          "internalType": "uint256",
          "name": "_tokenId",
          "type": "uint256"
        }
      ],
      "name": "MetadataUpdate",
      "type": "event"
    },
    {
      "anonymous": false,
      "inputs": [
        {
          "indexed": true,
          "internalType": "address",
          "name": "previousOwner",
          "type": "address"
        },
        {
          "indexed": true,
          "internalType": "address",
          "name": "newOwner",
          "type": "address"
        }
      ],
      "name": "OwnershipTransferred",
      "type": "event"
    },
    {
      "anonymous": false,
      "inputs": [
        {
          "indexed": true,
          "internalType": "address",
          "name": "from",
          "type": "address"
        },
        {
          "indexed": true,
          "internalType": "address",
          "name": "to",
          "type": "address"
        },
        {
          "indexed": true,
          "internalType": "uint256",
          "name": "tokenId",
          "type": "uint256"
        }
      ],
      "name": "Transfer",
      "type": "event"
    },
    {
      "inputs": [],
      "name": "MAX_OWNED_CARDS",
      "outputs": [
        {
          "internalType": "uint256",
          "name": "",
          "type": "uint256"
        }
      ],
      "stateMutability": "view",
      "type": "function"
    },
    {
      "inputs": [
        {
          "internalType": "address",
          "name": "to",
          "type": "address"
        },
        {
          "internalType": "uint256",
          "name": "tokenId",
          "type": "uint256"
        }
      ],
      "name": "approve",
      "outputs": [],
      "stateMutability": "nonpayable",
      "type": "function"
    },
    {
      "inputs": [
        {
          "internalType": "address",
          "name": "owner",
          "type": "address"
        }
      ],
      "name": "balanceOf",
      "outputs": [
        {
          "internalType": "uint256",
          "name": "",
          "type": "uint256"
        }
      ],
      "stateMutability": "view",
      "type": "function"
    },
    {
      "inputs": [
        {
          "internalType": "address",
          "name": "",
          "type": "address"
        }
      ],
      "name": "cooldowns",
      "outputs": [
        {
          "internalType": "uint256",
          "name": "",
          "type": "uint256"
        }
      ],
      "stateMutability": "view",
      "type": "function"
    },
    {
      "inputs": [],
      "name": "getAllForSaleCards",
      "outputs": [
        {
          "internalType": "uint256[]",
          "name": "",
          "type": "uint256[]"
        }
      ],
      "stateMutability": "view",
      "type": "function"
    },
    {
      "inputs": [],
      "name": "getAllTokens",
      "outputs": [
        {
          "internalType": "uint256[]",
          "name": "",
          "type": "uint256[]"
        }
      ],
      "stateMutability": "view",
      "type": "function"
    },
    {
      "inputs": [
        {
          "internalType": "uint256",
          "name": "tokenId",
          "type": "uint256"
        }
      ],
      "name": "getApproved",
      "outputs": [
        {
          "internalType": "address",
          "name": "",
          "type": "address"
        }
      ],
      "stateMutability": "view",
      "type": "function"
    },
    {
      "inputs": [
        {
          "internalType": "uint256",
          "name": "tokenId",
          "type": "uint256"
        }
      ],
      "name": "getCardInfo",
      "outputs": [
        {
          "internalType": "string",
          "name": "level",
          "type": "string"
        },
        {
          "internalType": "string",
          "name": "ipfsHash",
          "type": "string"
        },
        {
          "internalType": "uint256",
          "name": "mintedAt",
          "type": "uint256"
        },
        {
          "internalType": "uint256",
          "name": "lastTradedAt",
          "type": "uint256"
        },
        {
          "internalType": "address[]",
          "name": "previousOwners",
          "type": "address[]"
        }
      ],
      "stateMutability": "view",
      "type": "function"
    },
    {
      "inputs": [
        {
          "internalType": "uint256",
          "name": "tokenId",
          "type": "uint256"
        }
      ],
      "name": "getIpfsHash",
      "outputs": [
        {
          "internalType": "string",
          "name": "",
          "type": "string"
        }
      ],
      "stateMutability": "view",
      "type": "function"
    },
    {
      "inputs": [
        {
          "internalType": "uint256",
          "name": "tokenId",
          "type": "uint256"
        }
      ],
      "name": "getLevel",
      "outputs": [
        {
          "internalType": "string",
          "name": "",
          "type": "string"
        }
      ],
      "stateMutability": "view",
      "type": "function"
    },
    {
      "inputs": [
        {
          "internalType": "uint256",
          "name": "tokenId",
          "type": "uint256"
        }
      ],
      "name": "getPreviousOwners",
      "outputs": [
        {
          "internalType": "address[]",
          "name": "",
          "type": "address[]"
        }
      ],
      "stateMutability": "view",
      "type": "function"
    },
    {
      "inputs": [
        {
          "internalType": "address",
          "name": "owner",
          "type": "address"
        },
        {
          "internalType": "address",
          "name": "operator",
          "type": "address"
        }
      ],
      "name": "isApprovedForAll",
      "outputs": [
        {
          "internalType": "bool",
          "name": "",
          "type": "bool"
        }
      ],
      "stateMutability": "view",
      "type": "function"
    },
    {
      "inputs": [
        {
          "internalType": "uint256",
          "name": "tokenId",
          "type": "uint256"
        }
      ],
      "name": "isForSale",
      "outputs": [
        {
          "internalType": "bool",
          "name": "",
          "type": "bool"
        }
      ],
      "stateMutability": "view",
      "type": "function"
    },
    {
      "inputs": [
        {
          "internalType": "string",
          "name": "tokenURI",
          "type": "string"
        },
        {
          "internalType": "string",
          "name": "level",
          "type": "string"
        },
        {
          "internalType": "string",
          "name": "ipfsHash",
          "type": "string"
        }
      ],
      "name": "mintCard",
      "outputs": [],
      "stateMutability": "nonpayable",
      "type": "function"
    },
    {
      "inputs": [],
      "name": "name",
      "outputs": [
        {
          "internalType": "string",
          "name": "",
          "type": "string"
        }
      ],
      "stateMutability": "view",
      "type": "function"
    },
    {
      "inputs": [],
      "name": "nextTokenId",
      "outputs": [
        {
          "internalType": "uint256",
          "name": "",
          "type": "uint256"
        }
      ],
      "stateMutability": "view",
      "type": "function"
    },
    {
      "inputs": [],
      "name": "owner",
      "outputs": [
        {
          "internalType": "address",
          "name": "",
          "type": "address"
        }
      ],
      "stateMutability": "view",
      "type": "function"
    },
    {
      "inputs": [
        {
          "internalType": "uint256",
          "name": "tokenId",
          "type": "uint256"
        }
      ],
      "name": "ownerOf",
      "outputs": [
        {
          "internalType": "address",
          "name": "",
          "type": "address"
        }
      ],
      "stateMutability": "view",
      "type": "function"
    },
    {
      "inputs": [],
      "name": "renounceOwnership",
      "outputs": [],
      "stateMutability": "nonpayable",
      "type": "function"
    },
    {
      "inputs": [
        {
          "internalType": "address",
          "name": "from",
          "type": "address"
        },
        {
          "internalType": "address",
          "name": "to",
          "type": "address"
        },
        {
          "internalType": "uint256",
          "name": "tokenId",
          "type": "uint256"
        }
      ],
      "name": "safeTransferFrom",
      "outputs": [],
      "stateMutability": "nonpayable",
      "type": "function"
    },
    {
      "inputs": [
        {
          "internalType": "address",
          "name": "from",
          "type": "address"
        },
        {
          "internalType": "address",
          "name": "to",
          "type": "address"
        },
        {
          "internalType": "uint256",
          "name": "tokenId",
          "type": "uint256"
        },
        {
          "internalType": "bytes",
          "name": "data",
          "type": "bytes"
        }
      ],
      "name": "safeTransferFrom",
      "outputs": [],
      "stateMutability": "nonpayable",
      "type": "function"
    },
    {
      "inputs": [
        {
          "internalType": "address",
          "name": "operator",
          "type": "address"
        },
        {
          "internalType": "bool",
          "name": "approved",
          "type": "bool"
        }
      ],
      "name": "setApprovalForAll",
      "outputs": [],
      "stateMutability": "nonpayable",
      "type": "function"
    },
    {
      "inputs": [
        {
          "internalType": "uint256",
          "name": "tokenId",
          "type": "uint256"
        },
        {
          "internalType": "bool",
          "name": "isForSale",
          "type": "bool"
        }
      ],
      "name": "setForSale",
      "outputs": [],
      "stateMutability": "nonpayable",
      "type": "function"
    },
    {
      "inputs": [
        {
          "internalType": "bytes4",
          "name": "interfaceId",
          "type": "bytes4"
        }
      ],
      "name": "supportsInterface",
      "outputs": [
        {
          "internalType": "bool",
          "name": "",
          "type": "bool"
        }
      ],
      "stateMutability": "view",
      "type": "function"
    },
    {
      "inputs": [],
      "name": "symbol",
      "outputs": [
        {
          "internalType": "string",
          "name": "",
          "type": "string"
        }
      ],
      "stateMutability": "view",
      "type": "function"
    },
    {
      "inputs": [
        {
          "internalType": "uint256",
          "name": "tokenId",
          "type": "uint256"
        }
      ],
      "name": "tokenURI",
      "outputs": [
        {
          "internalType": "string",
          "name": "",
          "type": "string"
        }
      ],
      "stateMutability": "view",
      "type": "function"
    },
    {
      "inputs": [
        {
          "internalType": "uint256",
          "name": "tokenId",
          "type": "uint256"
        }
      ],
      "name": "tradeCard",
      "outputs": [],
      "stateMutability": "payable",
      "type": "function"
    },
    {
      "inputs": [
        {
          "internalType": "address",
          "name": "from",
          "type": "address"
        },
        {
          "internalType": "address",
          "name": "to",
          "type": "address"
        },
        {
          "internalType": "uint256",
          "name": "tokenId",
          "type": "uint256"
        }
      ],
      "name": "transferFrom",
      "outputs": [],
      "stateMutability": "nonpayable",
      "type": "function"
    },
    {
      "inputs": [
        {
          "internalType": "address",
          "name": "newOwner",
          "type": "address"
        }
      ],
      "name": "transferOwnership",
      "outputs": [],
      "stateMutability": "nonpayable",
      "type": "function"
    }
  ],
  "bytecode": "0x60806040523480156200001157600080fd5b50336040518060400160405280600e81526020017f43617264436f6c6c656374696f6e0000000000000000000000000000000000008152506040518060400160405280600481526020017f4341524400000000000000000000000000000000000000000000000000000000815250816000908162000090919062000472565b508060019081620000a2919062000472565b505050600073ffffffffffffffffffffffffffffffffffffffff168173ffffffffffffffffffffffffffffffffffffffff16036200011a5760006040517f1e4fbdf70000000000000000000000000000000000000000000000000000000081526004016200011191906200059e565b60405180910390fd5b6200012b816200013260201b60201c565b50620005bb565b6000600760009054906101000a900473ffffffffffffffffffffffffffffffffffffffff16905081600760006101000a81548173ffffffffffffffffffffffffffffffffffffffff021916908373ffffffffffffffffffffffffffffffffffffffff1602179055508173ffffffffffffffffffffffffffffffffffffffff168173ffffffffffffffffffffffffffffffffffffffff167f8be0079c531659141344cd1fd0a4f28419497f9722a3daafe3b4186f6b6457e060405160405180910390a35050565b600081519050919050565b7f4e487b7100000000000000000000000000000000000000000000000000000000600052604160045260246000fd5b7f4e487b7100000000000000000000000000000000000000000000000000000000600052602260045260246000fd5b600060028204905060018216806200027a57607f821691505b60208210810362000290576200028f62000232565b5b50919050565b60008190508160005260206000209050919050565b60006020601f8301049050919050565b600082821b905092915050565b600060088302620002fa7fffffffffffffffffffffffffffffffffffffffffffffffffffffffffffffffff82620002bb565b620003068683620002bb565b95508019841693508086168417925050509392505050565b6000819050919050565b6000819050919050565b6000620003536200034d62000347846200031e565b62000328565b6200031e565b9050919050565b6000819050919050565b6200036f8362000332565b620003876200037e826200035a565b848454620002c8565b825550505050565b600090565b6200039e6200038f565b620003ab81848462000364565b505050565b5b81811015620003d357620003c760008262000394565b600181019050620003b1565b5050565b601f8211156200042257620003ec8162000296565b620003f784620002ab565b8101602085101562000407578190505b6200041f6200041685620002ab565b830182620003b0565b50505b505050565b600082821c905092915050565b6000620004476000198460080262000427565b1980831691505092915050565b600062000462838362000434565b9150826002028217905092915050565b6200047d82620001f8565b67ffffffffffffffff81111562000499576200049862000203565b5b620004a5825462000261565b620004b2828285620003d7565b600060209050601f831160018114620004ea5760008415620004d5578287015190505b620004e1858262000454565b86555062000551565b601f198416620004fa8662000296565b60005b828110156200052457848901518255600182019150602085019450602081019050620004fd565b8683101562000544578489015162000540601f89168262000434565b8355505b6001600288020188555050505b505050505050565b600073ffffffffffffffffffffffffffffffffffffffff82169050919050565b6000620005868262000559565b9050919050565b620005988162000579565b82525050565b6000602082019050620005b560008301846200058d565b92915050565b613a3f80620005cb6000396000f3fe6080604052600436106101c25760003560e01c8063715018a6116100f7578063a22cb46511610095578063e985e9c511610064578063e985e9c514610683578063f0a6c16b146106c0578063f1a0995c146106e9578063f2fde38b14610726576101c2565b8063a22cb465146105b7578063b88d4fde146105e0578063c87b56dd14610609578063d450fbc914610646576101c2565b806386481d40116100d157806386481d40146104e35780638da5cb5b1461052057806395d89b411461054b578063970129be14610576576101c2565b8063715018a61461046457806375794a3c1461047b5780638546d002146104a6576101c2565b80632a5c792a1161016457806342842e0e1161013e57806342842e0e1461039857806347dfd91c146103c15780636352211e146103ea57806370a0823114610427576101c2565b80632a5c792a146103265780632a99421c14610351578063341f79a41461037c576101c2565b806306fdde03116101a057806306fdde031461026c578063081812fc14610297578063095ea7b3146102d457806323b872dd146102fd576101c2565b806301320fe2146101c757806301ffc9a714610204578063033a2bba14610241575b600080fd5b3480156101d357600080fd5b506101ee60048036038101906101e991906129e5565b61074f565b6040516101fb9190612a2b565b60405180910390f35b34801561021057600080fd5b5061022b60048036038101906102269190612a9e565b610767565b6040516102389190612ae6565b60405180910390f35b34801561024d57600080fd5b506102566107c8565b6040516102639190612bbf565b60405180910390f35b34801561027857600080fd5b506102816108f2565b60405161028e9190612c71565b60405180910390f35b3480156102a357600080fd5b506102be60048036038101906102b99190612cbf565b610984565b6040516102cb9190612cfb565b60405180910390f35b3480156102e057600080fd5b506102fb60048036038101906102f69190612d16565b6109a0565b005b34801561030957600080fd5b50610324600480360381019061031f9190612d56565b6109b6565b005b34801561033257600080fd5b5061033b610ab8565b6040516103489190612bbf565b60405180910390f35b34801561035d57600080fd5b50610366610b55565b6040516103739190612a2b565b60405180910390f35b61039660048036038101906103919190612cbf565b610b5a565b005b3480156103a457600080fd5b506103bf60048036038101906103ba9190612d56565b610c74565b005b3480156103cd57600080fd5b506103e860048036038101906103e39190612ede565b610c94565b005b3480156103f657600080fd5b50610411600480360381019061040c9190612cbf565b610e38565b60405161041e9190612cfb565b60405180910390f35b34801561043357600080fd5b5061044e600480360381019061044991906129e5565b610e4a565b60405161045b9190612a2b565b60405180910390f35b34801561047057600080fd5b50610479610f04565b005b34801561048757600080fd5b50610490610f18565b60405161049d9190612a2b565b60405180910390f35b3480156104b257600080fd5b506104cd60048036038101906104c89190612cbf565b610f1e565b6040516104da9190612ae6565b60405180910390f35b3480156104ef57600080fd5b5061050a60048036038101906105059190612cbf565b610f48565b6040516105179190612c71565b60405180910390f35b34801561052c57600080fd5b50610535610ff0565b6040516105429190612cfb565b60405180910390f35b34801561055757600080fd5b5061056061101a565b60405161056d9190612c71565b60405180910390f35b34801561058257600080fd5b5061059d60048036038101906105989190612cbf565b6110ac565b6040516105ae959493929190613043565b60405180910390f35b3480156105c357600080fd5b506105de60048036038101906105d991906130d7565b611295565b005b3480156105ec57600080fd5b50610607600480360381019061060291906131b8565b6112ab565b005b34801561061557600080fd5b50610630600480360381019061062b9190612cbf565b6112d0565b60405161063d9190612c71565b60405180910390f35b34801561065257600080fd5b5061066d60048036038101906106689190612cbf565b6113e3565b60405161067a9190612c71565b60405180910390f35b34801561068f57600080fd5b506106aa60048036038101906106a5919061323b565b61148b565b6040516106b79190612ae6565b60405180910390f35b3480156106cc57600080fd5b506106e760048036038101906106e2919061327b565b61151f565b005b3480156106f557600080fd5b50610710600480360381019061070b9190612cbf565b6115c4565b60405161071d91906132bb565b60405180910390f35b34801561073257600080fd5b5061074d600480360381019061074891906129e5565b611668565b005b600b6020528060005260406000206000915090505481565b6000634906490660e01b7bffffffffffffffffffffffffffffffffffffffffffffffffffffffff1916827bffffffffffffffffffffffffffffffffffffffffffffffffffffffff191614806107c157506107c0826116ee565b5b9050919050565b6060600060095490506000805b8281101561082557600c600082815260200190815260200160002060009054906101000a900460ff161561081257818061080e9061330c565b9250505b808061081d9061330c565b9150506107d5565b5060008167ffffffffffffffff81111561084257610841612db3565b5b6040519080825280602002602001820160405280156108705781602001602082028036833780820191505090505b5090506000805b848110156108e757600c600082815260200190815260200160002060009054906101000a900460ff16156108d457808383815181106108b9576108b8613354565b5b60200260200101818152505081806108d09061330c565b9250505b80806108df9061330c565b915050610877565b508194505050505090565b606060008054610901906133b2565b80601f016020809104026020016040519081016040528092919081815260200182805461092d906133b2565b801561097a5780601f1061094f5761010080835404028352916020019161097a565b820191906000526020600020905b81548152906001019060200180831161095d57829003601f168201915b5050505050905090565b600061098f826117d0565b5061099982611858565b9050919050565b6109b282826109ad611895565b61189d565b5050565b600073ffffffffffffffffffffffffffffffffffffffff168273ffffffffffffffffffffffffffffffffffffffff1603610a285760006040517f64a0ae92000000000000000000000000000000000000000000000000000000008152600401610a1f9190612cfb565b60405180910390fd5b6000610a3c8383610a37611895565b6118af565b90508373ffffffffffffffffffffffffffffffffffffffff168173ffffffffffffffffffffffffffffffffffffffff1614610ab2578382826040517f64283d7b000000000000000000000000000000000000000000000000000000008152600401610aa9939291906133e3565b60405180910390fd5b50505050565b60606000600954905060008167ffffffffffffffff811115610add57610adc612db3565b5b604051908082528060200260200182016040528015610b0b5781602001602082028036833780820191505090505b50905060005b82811015610b4c5780828281518110610b2d57610b2c613354565b5b6020026020010181815250508080610b449061330c565b915050610b11565b50809250505090565b600481565b6000610b6582610e38565b90503373ffffffffffffffffffffffffffffffffffffffff168173ffffffffffffffffffffffffffffffffffffffff1603610bd5576040517f08c379a0000000000000000000000000000000000000000000000000000000008152600401610bcc90613466565b60405180910390fd5b662386f26fc100003414610c1e576040517f08c379a0000000000000000000000000000000000000000000000000000000008152600401610c15906134d2565b60405180910390fd5b8073ffffffffffffffffffffffffffffffffffffffff166108fc349081150290604051600060405180830381858888f19350505050158015610c64573d6000803e3d6000fd5b50610c70813384611ac9565b5050565b610c8f838383604051806020016040528060008152506112ab565b505050565b6004610c9f33610e4a565b10610cdf576040517f08c379a0000000000000000000000000000000000000000000000000000000008152600401610cd69061353e565b60405180910390fd5b600060086000815480929190610cf49061330c565b919050559050610d043382611c36565b610d0e8185611c54565b6040518060c00160405280848152602001838152602001428152602001428152602001600067ffffffffffffffff811115610d4c57610d4b612db3565b5b604051908082528060200260200182016040528015610d7a5781602001602082028036833780820191505090505b50815260200160001515815250600a60008381526020019081526020016000206000820151816000019081610daf919061370a565b506020820151816001019081610dc5919061370a565b5060408201518160020155606082015181600301556080820151816004019080519060200190610df69291906128cc565b5060a08201518160050160006101000a81548160ff02191690831515021790555090505060096000815480929190610e2d9061330c565b919050555050505050565b6000610e43826117d0565b9050919050565b60008073ffffffffffffffffffffffffffffffffffffffff168273ffffffffffffffffffffffffffffffffffffffff1603610ebd5760006040517f89c62b64000000000000000000000000000000000000000000000000000000008152600401610eb49190612cfb565b60405180910390fd5b600360008373ffffffffffffffffffffffffffffffffffffffff1673ffffffffffffffffffffffffffffffffffffffff168152602001908152602001600020549050919050565b610f0c611cb0565b610f166000611d37565b565b60085481565b6000600c600083815260200190815260200160002060009054906101000a900460ff169050919050565b6060600a60008381526020019081526020016000206000018054610f6b906133b2565b80601f0160208091040260200160405190810160405280929190818152602001828054610f97906133b2565b8015610fe45780601f10610fb957610100808354040283529160200191610fe4565b820191906000526020600020905b815481529060010190602001808311610fc757829003601f168201915b50505050509050919050565b6000600760009054906101000a900473ffffffffffffffffffffffffffffffffffffffff16905090565b606060018054611029906133b2565b80601f0160208091040260200160405190810160405280929190818152602001828054611055906133b2565b80156110a25780601f10611077576101008083540402835291602001916110a2565b820191906000526020600020905b81548152906001019060200180831161108557829003601f168201915b5050505050905090565b60608060008060606000600a60008881526020019081526020016000209050806000018160010182600201548360030154846004018480546110ed906133b2565b80601f0160208091040260200160405190810160405280929190818152602001828054611119906133b2565b80156111665780601f1061113b57610100808354040283529160200191611166565b820191906000526020600020905b81548152906001019060200180831161114957829003601f168201915b50505050509450838054611179906133b2565b80601f01602080910402602001604051908101604052809291908181526020018280546111a5906133b2565b80156111f25780601f106111c7576101008083540402835291602001916111f2565b820191906000526020600020905b8154815290600101906020018083116111d557829003601f168201915b505050505093508080548060200260200160405190810160405280929190818152602001828054801561127a57602002820191906000526020600020905b8160009054906101000a900473ffffffffffffffffffffffffffffffffffffffff1673ffffffffffffffffffffffffffffffffffffffff1681526020019060010190808311611230575b50505050509050955095509550955095505091939590929450565b6112a76112a0611895565b8383611dfd565b5050565b6112b68484846109b6565b6112ca6112c1611895565b85858585611f6c565b50505050565b60606112db826117d0565b5060006006600084815260200190815260200160002080546112fc906133b2565b80601f0160208091040260200160405190810160405280929190818152602001828054611328906133b2565b80156113755780601f1061134a57610100808354040283529160200191611375565b820191906000526020600020905b81548152906001019060200180831161135857829003601f168201915b50505050509050600061138661211d565b9050600081510361139b5781925050506113de565b6000825111156113d05780826040516020016113b8929190613818565b604051602081830303815290604052925050506113de565b6113d984612134565b925050505b919050565b6060600a60008381526020019081526020016000206001018054611406906133b2565b80601f0160208091040260200160405190810160405280929190818152602001828054611432906133b2565b801561147f5780601f106114545761010080835404028352916020019161147f565b820191906000526020600020905b81548152906001019060200180831161146257829003601f168201915b50505050509050919050565b6000600560008473ffffffffffffffffffffffffffffffffffffffff1673ffffffffffffffffffffffffffffffffffffffff16815260200190815260200160002060008373ffffffffffffffffffffffffffffffffffffffff1673ffffffffffffffffffffffffffffffffffffffff16815260200190815260200160002060009054906101000a900460ff16905092915050565b3373ffffffffffffffffffffffffffffffffffffffff1661153f83610e38565b73ffffffffffffffffffffffffffffffffffffffff1614611595576040517f08c379a000000000000000000000000000000000000000000000000000000000815260040161158c906138ae565b60405180910390fd5b80600c600084815260200190815260200160002060006101000a81548160ff0219169083151502179055505050565b6060600a600083815260200190815260200160002060040180548060200260200160405190810160405280929190818152602001828054801561165c57602002820191906000526020600020905b8160009054906101000a900473ffffffffffffffffffffffffffffffffffffffff1673ffffffffffffffffffffffffffffffffffffffff1681526020019060010190808311611612575b50505050509050919050565b611670611cb0565b600073ffffffffffffffffffffffffffffffffffffffff168173ffffffffffffffffffffffffffffffffffffffff16036116e25760006040517f1e4fbdf70000000000000000000000000000000000000000000000000000000081526004016116d99190612cfb565b60405180910390fd5b6116eb81611d37565b50565b60007f80ac58cd000000000000000000000000000000000000000000000000000000007bffffffffffffffffffffffffffffffffffffffffffffffffffffffff1916827bffffffffffffffffffffffffffffffffffffffffffffffffffffffff191614806117b957507f5b5e139f000000000000000000000000000000000000000000000000000000007bffffffffffffffffffffffffffffffffffffffffffffffffffffffff1916827bffffffffffffffffffffffffffffffffffffffffffffffffffffffff1916145b806117c957506117c88261219d565b5b9050919050565b6000806117dc83612207565b9050600073ffffffffffffffffffffffffffffffffffffffff168173ffffffffffffffffffffffffffffffffffffffff160361184f57826040517f7e2732890000000000000000000000000000000000000000000000000000000081526004016118469190612a2b565b60405180910390fd5b80915050919050565b60006004600083815260200190815260200160002060009054906101000a900473ffffffffffffffffffffffffffffffffffffffff169050919050565b600033905090565b6118aa8383836001612244565b505050565b6000806118bb84612207565b9050600073ffffffffffffffffffffffffffffffffffffffff168373ffffffffffffffffffffffffffffffffffffffff16146118fd576118fc818486612409565b5b600073ffffffffffffffffffffffffffffffffffffffff168173ffffffffffffffffffffffffffffffffffffffff161461198e5761193f600085600080612244565b6001600360008373ffffffffffffffffffffffffffffffffffffffff1673ffffffffffffffffffffffffffffffffffffffff168152602001908152602001600020600082825403925050819055505b600073ffffffffffffffffffffffffffffffffffffffff168573ffffffffffffffffffffffffffffffffffffffff1614611a11576001600360008773ffffffffffffffffffffffffffffffffffffffff1673ffffffffffffffffffffffffffffffffffffffff168152602001908152602001600020600082825401925050819055505b846002600086815260200190815260200160002060006101000a81548173ffffffffffffffffffffffffffffffffffffffff021916908373ffffffffffffffffffffffffffffffffffffffff160217905550838573ffffffffffffffffffffffffffffffffffffffff168273ffffffffffffffffffffffffffffffffffffffff167fddf252ad1be2c89b69c2b068fc378daa952ba7f163c4a11628f55a4df523b3ef60405160405180910390a4809150509392505050565b600073ffffffffffffffffffffffffffffffffffffffff168273ffffffffffffffffffffffffffffffffffffffff1603611b3b5760006040517f64a0ae92000000000000000000000000000000000000000000000000000000008152600401611b329190612cfb565b60405180910390fd5b6000611b49838360006118af565b9050600073ffffffffffffffffffffffffffffffffffffffff168173ffffffffffffffffffffffffffffffffffffffff1603611bbc57816040517f7e273289000000000000000000000000000000000000000000000000000000008152600401611bb39190612a2b565b60405180910390fd5b8373ffffffffffffffffffffffffffffffffffffffff168173ffffffffffffffffffffffffffffffffffffffff1614611c30578382826040517f64283d7b000000000000000000000000000000000000000000000000000000008152600401611c27939291906133e3565b60405180910390fd5b50505050565b611c508282604051806020016040528060008152506124cd565b5050565b80600660008481526020019081526020016000209081611c74919061370a565b507ff8e1a15aba9398e019f0b49df1a4fde98ee17ae345cb5f6b5e2c27f5033e8ce782604051611ca49190612a2b565b60405180910390a15050565b611cb8611895565b73ffffffffffffffffffffffffffffffffffffffff16611cd6610ff0565b73ffffffffffffffffffffffffffffffffffffffff1614611d3557611cf9611895565b6040517f118cdaa7000000000000000000000000000000000000000000000000000000008152600401611d2c9190612cfb565b60405180910390fd5b565b6000600760009054906101000a900473ffffffffffffffffffffffffffffffffffffffff16905081600760006101000a81548173ffffffffffffffffffffffffffffffffffffffff021916908373ffffffffffffffffffffffffffffffffffffffff1602179055508173ffffffffffffffffffffffffffffffffffffffff168173ffffffffffffffffffffffffffffffffffffffff167f8be0079c531659141344cd1fd0a4f28419497f9722a3daafe3b4186f6b6457e060405160405180910390a35050565b600073ffffffffffffffffffffffffffffffffffffffff168273ffffffffffffffffffffffffffffffffffffffff1603611e6e57816040517f5b08ba18000000000000000000000000000000000000000000000000000000008152600401611e659190612cfb565b60405180910390fd5b80600560008573ffffffffffffffffffffffffffffffffffffffff1673ffffffffffffffffffffffffffffffffffffffff16815260200190815260200160002060008473ffffffffffffffffffffffffffffffffffffffff1673ffffffffffffffffffffffffffffffffffffffff16815260200190815260200160002060006101000a81548160ff0219169083151502179055508173ffffffffffffffffffffffffffffffffffffffff168373ffffffffffffffffffffffffffffffffffffffff167f17307eab39ab6107e8899845ad3d59bd9653f200f220920489ca2b5937696c3183604051611f5f9190612ae6565b60405180910390a3505050565b60008373ffffffffffffffffffffffffffffffffffffffff163b1115612116578273ffffffffffffffffffffffffffffffffffffffff1663150b7a02868685856040518563ffffffff1660e01b8152600401611fcb9493929190613923565b6020604051808303816000875af192505050801561200757506040513d601f19601f820116820180604052508101906120049190613984565b60015b61208b573d8060008114612037576040519150601f19603f3d011682016040523d82523d6000602084013e61203c565b606091505b50600081510361208357836040517f64a0ae9200000000000000000000000000000000000000000000000000000000815260040161207a9190612cfb565b60405180910390fd5b805181602001fd5b63150b7a0260e01b7bffffffffffffffffffffffffffffffffffffffffffffffffffffffff1916817bffffffffffffffffffffffffffffffffffffffffffffffffffffffff19161461211457836040517f64a0ae9200000000000000000000000000000000000000000000000000000000815260040161210b9190612cfb565b60405180910390fd5b505b5050505050565b606060405180602001604052806000815250905090565b606061213f826117d0565b50600061214a61211d565b9050600081511161216a5760405180602001604052806000815250612195565b80612174846124f1565b604051602001612185929190613818565b6040516020818303038152906040525b915050919050565b60007f01ffc9a7000000000000000000000000000000000000000000000000000000007bffffffffffffffffffffffffffffffffffffffffffffffffffffffff1916827bffffffffffffffffffffffffffffffffffffffffffffffffffffffff1916149050919050565b60006002600083815260200190815260200160002060009054906101000a900473ffffffffffffffffffffffffffffffffffffffff169050919050565b808061227d5750600073ffffffffffffffffffffffffffffffffffffffff168273ffffffffffffffffffffffffffffffffffffffff1614155b156123b157600061228d846117d0565b9050600073ffffffffffffffffffffffffffffffffffffffff168373ffffffffffffffffffffffffffffffffffffffff16141580156122f857508273ffffffffffffffffffffffffffffffffffffffff168173ffffffffffffffffffffffffffffffffffffffff1614155b801561230b5750612309818461148b565b155b1561234d57826040517fa9fbf51f0000000000000000000000000000000000000000000000000000000081526004016123449190612cfb565b60405180910390fd5b81156123af57838573ffffffffffffffffffffffffffffffffffffffff168273ffffffffffffffffffffffffffffffffffffffff167f8c5be1e5ebec7d5bd14f71427d1e84f3dd0314c0f7b2291e5b200ac8c7c3b92560405160405180910390a45b505b836004600085815260200190815260200160002060006101000a81548173ffffffffffffffffffffffffffffffffffffffff021916908373ffffffffffffffffffffffffffffffffffffffff16021790555050505050565b6124148383836125bf565b6124c857600073ffffffffffffffffffffffffffffffffffffffff168373ffffffffffffffffffffffffffffffffffffffff160361248957806040517f7e2732890000000000000000000000000000000000000000000000000000000081526004016124809190612a2b565b60405180910390fd5b81816040517f177e802f0000000000000000000000000000000000000000000000000000000081526004016124bf9291906139b1565b60405180910390fd5b505050565b6124d78383612680565b6124ec6124e2611895565b6000858585611f6c565b505050565b60606000600161250084612779565b01905060008167ffffffffffffffff81111561251f5761251e612db3565b5b6040519080825280601f01601f1916602001820160405280156125515781602001600182028036833780820191505090505b509050600082602001820190505b6001156125b4578080600190039150507f3031323334353637383961626364656600000000000000000000000000000000600a86061a8153600a85816125a8576125a76139da565b5b0494506000850361255f575b819350505050919050565b60008073ffffffffffffffffffffffffffffffffffffffff168373ffffffffffffffffffffffffffffffffffffffff161415801561267757508273ffffffffffffffffffffffffffffffffffffffff168473ffffffffffffffffffffffffffffffffffffffff1614806126385750612637848461148b565b5b8061267657508273ffffffffffffffffffffffffffffffffffffffff1661265e83611858565b73ffffffffffffffffffffffffffffffffffffffff16145b5b90509392505050565b600073ffffffffffffffffffffffffffffffffffffffff168273ffffffffffffffffffffffffffffffffffffffff16036126f25760006040517f64a0ae920000000000000000000000000000000000000000000000000000000081526004016126e99190612cfb565b60405180910390fd5b6000612700838360006118af565b9050600073ffffffffffffffffffffffffffffffffffffffff168173ffffffffffffffffffffffffffffffffffffffff16146127745760006040517f73c6ac6e00000000000000000000000000000000000000000000000000000000815260040161276b9190612cfb565b60405180910390fd5b505050565b600080600090507a184f03e93ff9f4daa797ed6e38ed64bf6a1f01000000000000000083106127d7577a184f03e93ff9f4daa797ed6e38ed64bf6a1f01000000000000000083816127cd576127cc6139da565b5b0492506040810190505b6d04ee2d6d415b85acef81000000008310612814576d04ee2d6d415b85acef8100000000838161280a576128096139da565b5b0492506020810190505b662386f26fc10000831061284357662386f26fc100008381612839576128386139da565b5b0492506010810190505b6305f5e100831061286c576305f5e1008381612862576128616139da565b5b0492506008810190505b6127108310612891576127108381612887576128866139da565b5b0492506004810190505b606483106128b457606483816128aa576128a96139da565b5b0492506002810190505b600a83106128c3576001810190505b80915050919050565b828054828255906000526020600020908101928215612945579160200282015b828111156129445782518260006101000a81548173ffffffffffffffffffffffffffffffffffffffff021916908373ffffffffffffffffffffffffffffffffffffffff160217905550916020019190600101906128ec565b5b5090506129529190612956565b5090565b5b8082111561296f576000816000905550600101612957565b5090565b6000604051905090565b600080fd5b600080fd5b600073ffffffffffffffffffffffffffffffffffffffff82169050919050565b60006129b282612987565b9050919050565b6129c2816129a7565b81146129cd57600080fd5b50565b6000813590506129df816129b9565b92915050565b6000602082840312156129fb576129fa61297d565b5b6000612a09848285016129d0565b91505092915050565b6000819050919050565b612a2581612a12565b82525050565b6000602082019050612a406000830184612a1c565b92915050565b60007fffffffff0000000000000000000000000000000000000000000000000000000082169050919050565b612a7b81612a46565b8114612a8657600080fd5b50565b600081359050612a9881612a72565b92915050565b600060208284031215612ab457612ab361297d565b5b6000612ac284828501612a89565b91505092915050565b60008115159050919050565b612ae081612acb565b82525050565b6000602082019050612afb6000830184612ad7565b92915050565b600081519050919050565b600082825260208201905092915050565b6000819050602082019050919050565b612b3681612a12565b82525050565b6000612b488383612b2d565b60208301905092915050565b6000602082019050919050565b6000612b6c82612b01565b612b768185612b0c565b9350612b8183612b1d565b8060005b83811015612bb2578151612b998882612b3c565b9750612ba483612b54565b925050600181019050612b85565b5085935050505092915050565b60006020820190508181036000830152612bd98184612b61565b905092915050565b600081519050919050565b600082825260208201905092915050565b60005b83811015612c1b578082015181840152602081019050612c00565b60008484015250505050565b6000601f19601f8301169050919050565b6000612c4382612be1565b612c4d8185612bec565b9350612c5d818560208601612bfd565b612c6681612c27565b840191505092915050565b60006020820190508181036000830152612c8b8184612c38565b905092915050565b612c9c81612a12565b8114612ca757600080fd5b50565b600081359050612cb981612c93565b92915050565b600060208284031215612cd557612cd461297d565b5b6000612ce384828501612caa565b91505092915050565b612cf5816129a7565b82525050565b6000602082019050612d106000830184612cec565b92915050565b60008060408385031215612d2d57612d2c61297d565b5b6000612d3b858286016129d0565b9250506020612d4c85828601612caa565b9150509250929050565b600080600060608486031215612d6f57612d6e61297d565b5b6000612d7d868287016129d0565b9350506020612d8e868287016129d0565b9250506040612d9f86828701612caa565b9150509250925092565b600080fd5b600080fd5b7f4e487b7100000000000000000000000000000000000000000000000000000000600052604160045260246000fd5b612deb82612c27565b810181811067ffffffffffffffff82111715612e0a57612e09612db3565b5b80604052505050565b6000612e1d612973565b9050612e298282612de2565b919050565b600067ffffffffffffffff821115612e4957612e48612db3565b5b612e5282612c27565b9050602081019050919050565b82818337600083830152505050565b6000612e81612e7c84612e2e565b612e13565b905082815260208101848484011115612e9d57612e9c612dae565b5b612ea8848285612e5f565b509392505050565b600082601f830112612ec557612ec4612da9565b5b8135612ed5848260208601612e6e565b91505092915050565b600080600060608486031215612ef757612ef661297d565b5b600084013567ffffffffffffffff811115612f1557612f14612982565b5b612f2186828701612eb0565b935050602084013567ffffffffffffffff811115612f4257612f41612982565b5b612f4e86828701612eb0565b925050604084013567ffffffffffffffff811115612f6f57612f6e612982565b5b612f7b86828701612eb0565b9150509250925092565b600081519050919050565b600082825260208201905092915050565b6000819050602082019050919050565b612fba816129a7565b82525050565b6000612fcc8383612fb1565b60208301905092915050565b6000602082019050919050565b6000612ff082612f85565b612ffa8185612f90565b935061300583612fa1565b8060005b8381101561303657815161301d8882612fc0565b975061302883612fd8565b925050600181019050613009565b5085935050505092915050565b600060a082019050818103600083015261305d8188612c38565b905081810360208301526130718187612c38565b90506130806040830186612a1c565b61308d6060830185612a1c565b818103608083015261309f8184612fe5565b90509695505050505050565b6130b481612acb565b81146130bf57600080fd5b50565b6000813590506130d1816130ab565b92915050565b600080604083850312156130ee576130ed61297d565b5b60006130fc858286016129d0565b925050602061310d858286016130c2565b9150509250929050565b600067ffffffffffffffff82111561313257613131612db3565b5b61313b82612c27565b9050602081019050919050565b600061315b61315684613117565b612e13565b90508281526020810184848401111561317757613176612dae565b5b613182848285612e5f565b509392505050565b600082601f83011261319f5761319e612da9565b5b81356131af848260208601613148565b91505092915050565b600080600080608085870312156131d2576131d161297d565b5b60006131e0878288016129d0565b94505060206131f1878288016129d0565b935050604061320287828801612caa565b925050606085013567ffffffffffffffff81111561322357613222612982565b5b61322f8782880161318a565b91505092959194509250565b600080604083850312156132525761325161297d565b5b6000613260858286016129d0565b9250506020613271858286016129d0565b9150509250929050565b600080604083850312156132925761329161297d565b5b60006132a085828601612caa565b92505060206132b1858286016130c2565b9150509250929050565b600060208201905081810360008301526132d58184612fe5565b905092915050565b7f4e487b7100000000000000000000000000000000000000000000000000000000600052601160045260246000fd5b600061331782612a12565b91507fffffffffffffffffffffffffffffffffffffffffffffffffffffffffffffffff8203613349576133486132dd565b5b600182019050919050565b7f4e487b7100000000000000000000000000000000000000000000000000000000600052603260045260246000fd5b7f4e487b7100000000000000000000000000000000000000000000000000000000600052602260045260246000fd5b600060028204905060018216806133ca57607f821691505b6020821081036133dd576133dc613383565b5b50919050565b60006060820190506133f86000830186612cec565b6134056020830185612a1c565b6134126040830184612cec565b949350505050565b7f596f752063616e6e6f742062757920796f7572206f776e206361726400000000600082015250565b6000613450601c83612bec565b915061345b8261341a565b602082019050919050565b6000602082019050818103600083015261347f81613443565b9050919050565b7f496e636f72726563742070726963650000000000000000000000000000000000600082015250565b60006134bc600f83612bec565b91506134c782613486565b602082019050919050565b600060208201905081810360008301526134eb816134af565b9050919050565b7f4f776e657273686970206c696d69742072656163686564000000000000000000600082015250565b6000613528601783612bec565b9150613533826134f2565b602082019050919050565b600060208201905081810360008301526135578161351b565b9050919050565b60008190508160005260206000209050919050565b60006020601f8301049050919050565b600082821b905092915050565b6000600883026135c07fffffffffffffffffffffffffffffffffffffffffffffffffffffffffffffffff82613583565b6135ca8683613583565b95508019841693508086168417925050509392505050565b6000819050919050565b60006136076136026135fd84612a12565b6135e2565b612a12565b9050919050565b6000819050919050565b613621836135ec565b61363561362d8261360e565b848454613590565b825550505050565b600090565b61364a61363d565b613655818484613618565b505050565b5b818110156136795761366e600082613642565b60018101905061365b565b5050565b601f8211156136be5761368f8161355e565b61369884613573565b810160208510156136a7578190505b6136bb6136b385613573565b83018261365a565b50505b505050565b600082821c905092915050565b60006136e1600019846008026136c3565b1980831691505092915050565b60006136fa83836136d0565b9150826002028217905092915050565b61371382612be1565b67ffffffffffffffff81111561372c5761372b612db3565b5b61373682546133b2565b61374182828561367d565b600060209050601f8311600181146137745760008415613762578287015190505b61376c85826136ee565b8655506137d4565b601f1984166137828661355e565b60005b828110156137aa57848901518255600182019150602085019450602081019050613785565b868310156137c757848901516137c3601f8916826136d0565b8355505b6001600288020188555050505b505050505050565b600081905092915050565b60006137f282612be1565b6137fc81856137dc565b935061380c818560208601612bfd565b80840191505092915050565b600061382482856137e7565b915061383082846137e7565b91508190509392505050565b7f4f6e6c79206f776e65722063616e206368616e67652073616c6520737461747560008201527f7300000000000000000000000000000000000000000000000000000000000000602082015250565b6000613898602183612bec565b91506138a38261383c565b604082019050919050565b600060208201905081810360008301526138c78161388b565b9050919050565b600081519050919050565b600082825260208201905092915050565b60006138f5826138ce565b6138ff81856138d9565b935061390f818560208601612bfd565b61391881612c27565b840191505092915050565b60006080820190506139386000830187612cec565b6139456020830186612cec565b6139526040830185612a1c565b818103606083015261396481846138ea565b905095945050505050565b60008151905061397e81612a72565b92915050565b60006020828403121561399a5761399961297d565b5b60006139a88482850161396f565b91505092915050565b60006040820190506139c66000830185612cec565b6139d36020830184612a1c565b9392505050565b7f4e487b7100000000000000000000000000000000000000000000000000000000600052601260045260246000fdfea2646970667358221220335bc70429ca6800b06ddf8e07f5d64518cd47a91afe1133232221258ab76a1f64736f6c63430008140033",
  "linkReferences": {},
  "deployedLinkReferences": {}
}